:020000040000FA
:0400000000009D2837
:0800080007150B11A000030E07
:10001000A100A808031DA8032B184F282B149F1418
:100020009F193228B20B1728AF018030B200300878
:10003000031D9728B40DB30DB40DB30D3308B700ED
:10004000B9016030B302031C2E28FF30B40DB30D8C
:1000500003182E28B40DB30D031C3308B900B301E7
:10006000B40197283008031D9728B60DB50DB60DBD
:10007000B50D3508B800BA016030B502031C492837
:10008000FF30B60DB50D03184928B60DB50D031C8C
:100090003508BA00B501B6014030B00097282B10E2
:1000A0001E089F1967289F15AC00AE003702031881
:1000B0005B2837082E02AE00193C031C2B172E08B4
:1000C0002F02031897282E08AF00AB1797289F110F
:1000D000AD00AE00380203186F2838082E02AE00BB
:1000E000193C031C2B172E082F0203187A282E0800
:1000F000AF00AB17AB1F81282C08BB002D08BC003C
:10010000AB132B1F8C282B13B10B97288030B70013
:10011000B8004030B10097282C08B4070318B30A80
:100120002D08B6070318B50AB0034030B100210E00
:100130008300A00E200E071109006321B5202208BC
:100140002302031C9E28A8200C303E21A20A9F28CF
:100150004A212208572104305721023057212430E8
:100160005721063057215C210800971817121716DF
:100170002F210319B828FF3C031DB8282F2103198C
:10018000B828FF3C031DB828A7012F210319B82860
:100190007F3C0319CF282F21031D3E21B8282F2192
:1001A0000319B828A400023C0319DD282408043CE4
:1001B0000319EF2824083E21B8282F210319B82855
:1001C000863C0319E62824033E21B8282709A60007
:1001D0002F210319B828260203192621B8282F2118
:1001E0000319B828A500FE39843C0319FA28240312
:1001F0003E21B8282F210319B828A2002F21031966
:10020000B828A3002709A6002F210319B828260221
:10021000031DB82825180D2108008B13AF01AB135F
:100220003B08A9003C08AA008030B2008B174A2185
:100230007F30572105305721290857212A08572197
:10024000390857213A0857215C2108004A217F309C
:10025000572102305721023057215C21080080309D
:10026000A800A808031908008C1E3129171D3A2977
:1002700014082F291408A70703110800A4008030D0
:10028000A800A808031908008C1E41291408A40B13
:100290003F290800640017120D30A400A40B4E295A
:1002A0008715FF305721FF305721A70108008C1C0C
:1002B00057299500A707080027095721961C5E2992
:1002C0008711171608008701243096009030970098
:1002D00041309F008316D03081003F309100F330D1
:1002E000870020309F008312B301B401B501B6012D
:1002F0004030B0008030B700B800B900BA00BB0091
:10030000BC00AF01AB014030B100B201A8018101D6
:06031000A0308B00080084
:02400E00C203EB
:00000001FF
