:020000040000FA
:0400000000000528CF
:080008000900742010205220B1
:100010000C304820A00A20082102031807280628CF
:1000200097181712171664003F20FF3C031D132872
:1000300064003F20FF3C031D1328A3013F207F3CA9
:10004000031925283F20482013283F20A200043C04
:1000500003192D282208482013283F20843C031927
:1000600034282203482013283F20A0003F20A1006D
:100070002309A4003F202402031D132808008C1E1E
:100080003F28171D452814083F281408A307080017
:1000900064000715A2008C1E4B281408A20B4B28E5
:1000A00007110800640017120D30A200A20B562899
:1000B0008715FF306F20FF306F20A30120086F20CD
:1000C00004306F2002306F2024306F2006306F2004
:1000D00023096F20961C6A288711171608008C1CAC
:1000E0006F289500A307080087019801161596163A
:1000F00017169717831681118711071183120800AD
:02400E00CA03E3
:00000001FF
